{
  "contractName": "TokenBalanceUtility",
  "abi": [
    {
      "inputs": [
        {
          "internalType": "address",
          "name": "wallet",
          "type": "address"
        },
        {
          "internalType": "address[]",
          "name": "tokenAddresses",
          "type": "address[]"
        }
      ],
      "name": "getTokenBalances",
      "outputs": [
        {
          "components": [
            {
              "internalType": "address",
              "name": "token",
              "type": "address"
            },
            {
              "internalType": "uint256",
              "name": "balance",
              "type": "uint256"
            }
          ],
          "internalType": "struct TokenBalanceUtility.TokenBalance[]",
          "name": "",
          "type": "tuple[]"
        }
      ],
      "stateMutability": "view",
      "type": "function"
    }
  ],
  "bytecode": "0x608060405234801561000f575f80fd5b5061068c8061001d5f395ff3fe608060405234801561000f575f80fd5b5060043610610029575f3560e01c8063d802178e1461002d575b5f80fd5b610047600480360381019061004291906103c2565b61005d565b6040516100549190610518565b60405180910390f35b60605f825167ffffffffffffffff81111561007b5761007a610286565b5b6040519080825280602002602001820160405280156100b457816020015b6100a16101d9565b8152602001906001900390816100995790505b5090505f5b83518110156101ce575f8482815181106100d6576100d5610538565b5b6020026020010151905060405180604001604052808684815181106100fe576100fd610538565b5b602002602001015173ffffffffffffffffffffffffffffffffffffffff1681526020018273ffffffffffffffffffffffffffffffffffffffff166370a08231896040518263ffffffff1660e01b815260040161015a9190610574565b602060405180830381865afa158015610175573d5f803e3d5ffd5b505050506040513d601f19601f8201168201806040525081019061019991906105b7565b8152508383815181106101af576101ae610538565b5b60200260200101819052505080806101c69061060f565b9150506100b9565b508091505092915050565b60405180604001604052805f73ffffffffffffffffffffffffffffffffffffffff1681526020015f81525090565b5f604051905090565b5f80fd5b5f80fd5b5f73ffffffffffffffffffffffffffffffffffffffff82169050919050565b5f61024182610218565b9050919050565b61025181610237565b811461025b575f80fd5b50565b5f8135905061026c81610248565b92915050565b5f80fd5b5f601f19601f8301169050919050565b7f4e487b71000000000000000000000000000000000000000000000000000000005f52604160045260245ffd5b6102bc82610276565b810181811067ffffffffffffffff821117156102db576102da610286565b5b80604052505050565b5f6102ed610207565b90506102f982826102b3565b919050565b5f67ffffffffffffffff82111561031857610317610286565b5b602082029050602081019050919050565b5f80fd5b5f61033f61033a846102fe565b6102e4565b9050808382526020820190506020840283018581111561036257610361610329565b5b835b8181101561038b5780610377888261025e565b845260208401935050602081019050610364565b5050509392505050565b5f82601f8301126103a9576103a8610272565b5b81356103b984826020860161032d565b91505092915050565b5f80604083850312156103d8576103d7610210565b5b5f6103e58582860161025e565b925050602083013567ffffffffffffffff81111561040657610405610214565b5b61041285828601610395565b9150509250929050565b5f81519050919050565b5f82825260208201905092915050565b5f819050602082019050919050565b61044e81610237565b82525050565b5f819050919050565b61046681610454565b82525050565b604082015f8201516104805f850182610445565b506020820151610493602085018261045d565b50505050565b5f6104a4838361046c565b60408301905092915050565b5f602082019050919050565b5f6104c68261041c565b6104d08185610426565b93506104db83610436565b805f5b8381101561050b5781516104f28882610499565b97506104fd836104b0565b9250506001810190506104de565b5085935050505092915050565b5f6020820190508181035f83015261053081846104bc565b905092915050565b7f4e487b71000000000000000000000000000000000000000000000000000000005f52603260045260245ffd5b61056e81610237565b82525050565b5f6020820190506105875f830184610565565b92915050565b61059681610454565b81146105a0575f80fd5b50565b5f815190506105b18161058d565b92915050565b5f602082840312156105cc576105cb610210565b5b5f6105d9848285016105a3565b91505092915050565b7f4e487b71000000000000000000000000000000000000000000000000000000005f52601160045260245ffd5b5f61061982610454565b91507fffffffffffffffffffffffffffffffffffffffffffffffffffffffffffffffff820361064b5761064a6105e2565b5b60018201905091905056fea2646970667358221220246068d9f4192840747768bc241608d76a18efc64a4eff55644bff1e4eeedc9a64736f6c63430008140033",
  "immutableReferences": {},
  "source": "pragma solidity ^0.8.0;\r\n\r\ncontract TokenBalanceUtility {\r\n    struct TokenBalance {\r\n        address token;\r\n        uint256 balance;\r\n    }\r\n\r\n    function getTokenBalances(address wallet, address[] memory tokenAddresses) public view returns (TokenBalance[] memory) {\r\n        TokenBalance[] memory balances = new TokenBalance[](tokenAddresses.length);\r\n\r\n        for (uint256 i = 0; i < tokenAddresses.length; i++) {\r\n            address token = tokenAddresses[i];\r\n            balances[i] = TokenBalance({\r\n                token: tokenAddresses[i],\r\n                balance: IERC20(token).balanceOf(wallet)\r\n            });\r\n        }\r\n\r\n        return balances;\r\n    }\r\n}\r\n\r\ninterface IERC20 {\r\n    function balanceOf(address account) external view returns (uint256);\r\n}\r\n",
  "sourcePath": "C:\\wamp64\\www\\switcheo-code-challenge\\src\\problem5\\contracts\\TokenBalanceUtility.sol",
  "compiler": {
    "name": "solc",
    "version": "0.8.20+commit.a1b79de6.Emscripten.clang"
  },
  "schemaVersion": "3.4.14",
  "updatedAt": "2023-05-31T16:58:53.276Z",
  "devdoc": {
    "kind": "dev",
    "methods": {},
    "version": 1
  },
  "userdoc": {
    "kind": "user",
    "methods": {},
    "version": 1
  }
}